:100000000C94E50C0C94160D0C94160D0C94160D16
:100010000C94160D0C94160D0C94160D0C94160DD4
:100020000C94160D0C94160D0C94160D0C94160DC4
:100030000C94160D0C9489880C94160D0C94160DC6
:100040000C94160D0C94C55B0C94160D0C94160DA7
:100050000C94160D0C94160D0C9401960C9423A27E
:100060000C94160D0C94B12E0C94160D0C94160DC8
:100070000C94160D0C94160D0C94160D0C94160D74
:100080000C94160D0C94160D0C94160D0C94160D64
:100090000C94160D0C94160D0C94160D0C94160D54
:1000A0000C94160D0C94160D0C94160D0C94160D44
:1000B0000C94160D0C94160D0C94160D0C94160D34
:1000C0000C94160D0C94160D0C94160D0C94160D24
:1000D0000C94160D0C94160D0C94160D0C94160D14
:1000E0000C94160D9551985187518B518F51CF51CA
:1000F0009C51A051A651AA51AE51B451B851BC5116
:10010000CF51C251C651CA5146524B5250525A5207
:100110006452DD526E5276527E52885292529C52F6
:10012000AB52B552DD52BF52C952D3524896579680
:10013000739682969C96AB96C596C996084AD73B0D
:100140003BCE016E84BCBFFDC12F3D6C74319ABDA6
:1001500056833DDA3D00C77F11BED9E4BB4C3E91CA
:100160006BAAAABE000000803F05A84CCDB2D44EB9
:10017000B93836A9020C50B9918688083CA6AAAABB
:100180002ABE000000803F004E414E494E4954595E
:10019000494E46CDCCCC3D0AD7233C17B7D1387752
:1001A000CC2B329595E6241FB14F0A000020410068
:1001B00000C84200401C4620BCBE4CCA1B0E5AAEB2
:1001C000C59D742F005344207072696E74696E6708
:1001D000206279746520004E6F7420534420707241
:1001E000696E74696E67002E0044656C6574696F92
:1001F0006E206661696C65642C2046696C653A20E6
:100200000046696C652064656C657465643A002E0F
:10021000006F70656E206661696C65642C204669AC
:100220006C653A2000504944204175746F74756EB6
:10023000652066696E697368656421205075742055
:10024000746865204B702C204B6920616E64204BD4
:100250006420636F6E7374616E747320696E746F63
:1002600020436F6E66696775726174696F6E2E6880
:1002700000504944204175746F74756E6520666145
:10028000696C6564212074696D656F757400204028
:100290003A006F6B20543A006F6B20423A0050498D
:1002A00044204175746F74756E65206661696C6574
:1002B00064212054656D7065726174757265207477
:1002C0006F6F206869676800204B643A2000204BFC
:1002D000693A2000204B703A200020436C6173691A
:1002E000632050494420002054753A2000204B756B
:1002F0003A2000206D61783A2000206D696E3A2026
:100300000020643A200020626961733A20002200D4
:10031000556E6B6E6F776E20636F6D6D616E643AB4
:100320002022007A5F6D61783A20007A5F6D696EF5
:100330003A2000795F6D61783A2000795F6D696ECF
:100340003A2000785F6D61783A2000785F6D696EC1
:100350003A20005A3A00593A0020436F756E7420D3
:10036000583A2000453A005A3A00593A00583A00A3
:100370004649524D574152455F4E414D453A4D61B8
:10038000726C696E2056313B20537072696E7465D1
:10039000722F6772626C206D617368757020666F72
:1003A000722067656E36204649524D574152455F6F
:1003B00055524C3A687474703A2F2F7777772E6DB8
:1003C000656E64656C2D70617274732E636F6D2041
:1003D00050524F544F434F4C5F56455253494F4E26
:1003E0003A312E30204D414348494E455F545950D3
:1003F000453A4C617365722043757474657220458B
:10040000585452554445525F434F554E543A310A61
:10041000004C6173657220437574746572204F6679
:10042000662E004C6173657220437574746572208A
:1004300052656164792E0042656420646F6E652E9A
:100440000020423A0020453A00543A0042656420B8
:1004500048656174696E672E0048656174696E67EE
:1004600020646F6E652E0020573A0020453A0054F4
:100470003A0048656174696E672E2E2E0020424056
:100480003A0020403A00202F003A00205400202F4C
:100490000020423A00202F006F6B20543A0025695B
:1004A000206D696E2C2025692073656300456E649C
:1004B0002066696C65206C69737400426567696EBB
:1004C0002066696C65206C697374004E6F206D6FD7
:1004D00076652E00526573756D696E67207072695E
:1004E0006E74005761697420666F7220757365724F
:1004F0002E2E2E00536C6565702E2E2E002020505F
:100500006C616E6E6572427566666572427974657D
:10051000733A20002046726565204D656D6F7279D3
:100520003A200041707220203420323031380043AC
:100530006F6D70696C65643A2000286E6F6E652C73
:100540002064656661756C7420636F6E66696729E7
:1005500000207C20417574686F723A2000417072EF
:1005600020203420323031382031353A35303A309D
:100570003000204C61737420557064617465643A76
:100580002000312E302E30004D61726C696E2000DB
:1005900020536F66747761726520526573657400CD
:1005A000205761746368646F6720526573657400D7
:1005B0002042726F776E206F757420526573657478
:1005C000002045787465726E616C205265736574A5
:1005D00000506F7765725570007374617274004DCE
:1005E000383420582059205A2045006563686F3AF6
:1005F00000256920686F757273202569206D696E0A
:100600007574657300446F6E65207072696E7469ED
:100610006E672066696C650053544F505045442EF8
:1006200020005072696E7465722073746F7070650B
:10063000642064756520746F206572726F72732E0A
:100640002046697820746865206572726F72206137
:100650006E6420757365204D39393920746F2072AE
:100660006573746172742E202854656D70657261B3
:10067000747572652069732072657365742E2053DA
:100680006574206974206166746572207265737484
:10069000617274696E6729006F6B004E6F204C6940
:1006A0006E65204E756D626572207769746820638F
:1006B0006865636B73756D2C204C617374204C6995
:1006C0006E653A20004E6F20436865636B73756DED
:1006D0002077697468206C696E65206E756D62653F
:1006E000722C204C617374204C696E653A20006353
:1006F0006865636B73756D206D69736D6174636894
:100700002C204C617374204C696E653A20004C6952
:100710006E65204E756D626572206973206E6F7410
:10072000204C617374204C696E65204E756D626556
:10073000722B312C204C617374204C696E653A2009
:10074000004572726F723A004D3131300047370008
:100750004737004737004737006572726F7220775E
:10076000726974696E6720746F2066696C650065D4
:100770006E6473746F7073206869743A205A002035
:100780005A3A00656E6473746F7073206869743AC6
:1007900020590020593A00656E6473746F7073209D
:1007A0006869743A20580020583A00656E64737482
:1007B0006F7073206869743A20006563686F3A004F
:1007C000446F6E6520736176696E672066696C653B
:1007D0002E006F6B004D32390053657474696E677B
:1007E000732053746F726564002044002049002018
:1007F00020204D333031205000504944207365741F
:1008000074696E67733A00204D696E757465733A4A
:10081000200020486F7572733A20004C6173657236
:10082000206C69666574696D652075736167653AEA
:1008300000205A0020590020204D32303620580028
:10084000486F6D65206F666673657420286D6D292D
:100850003A00204500205A00205800204200205431
:100860000020204D323035205300416476616E63A4
:100870006564207661726961626C65733A20533DEC
:100880004D696E20666565647261746520286D6DC2
:100890002F73292C20543D4D696E2074726176654A
:1008A0006C20666565647261746520286D6D2F73B8
:1008B000292C20423D6D696E696D756D20736567E9
:1008C0006D656E742074696D6520286D73292C2008
:1008D000583D6D6178696D756D205859206A657253
:1008E0006B20286D6D2F73292C20205A3D6D617867
:1008F000696D756D205A206A65726B20286D6D2FA9
:1009000073292C2020453D6D6178696D756D2045FA
:10091000206A65726B20286D6D2F732900205400AA
:1009200020204D323034205300416363656C657282
:100930006174696F6E3A20533D616363656C6572E3
:100940006174696F6E2C20543D72657472616374BA
:1009500020616363656C65726174696F6E00204528
:1009600000205A0020590020204D323031205800FC
:100970004D6178696D756D20416363656C65726169
:1009800074696F6E20286D6D2F7332293A002045EF
:1009900000205A0020590020204D323033205800CA
:1009A0004D6178696D756D20666565647261746509
:1009B0007320286D6D2F73293A00204500205A00BE
:1009C00020590020204D393220580053746570732F
:1009D0002070657220756E69743A0053746F726589
:1009E000642073657474696E6773207265747269CC
:1009F000657665640048617264636F646564204471
:100A0000656661756C742053657474696E677320D4
:100A10004C6F61646564006563686F3A002200652D
:100A20006E717565696E672022002200656E7175B2
:100A300065696E6720220000005C430000344300BB
:100A400000964200000000000000000000000000CE
:100A500000000000000000000000004D3234004D96
:100A60003233202573006175746F25692E6700533A
:100A7000442063617264206F6B006F70656E526F0B
:100A80006F74206661696C656400766F6C756D6566
:100A90002E696E6974206661696C656400457272C6
:100AA0006F723A00534420696E6974206661696C04
:100AB000006563686F3A004D383000437573746F9A
:100AC0006D00437573746F6D00376D6D00366D6D1D
:100AD000202D20312F34696E00356D6D00346D6D21
:100AE00000336D6D202D20312F38696E00326D6D11
:100AF00000316D6D004C617365722046756E6374D4
:100B0000696F6E73004730205A25732046313530A7
:100B100000473238205A2046313530004D323400FB
:100B20004D32332025730043616E6E6F7420656E05
:100B3000746572207375626469723A2000052E2E06
:100B4000004D61696E0000002100240027002A008A
:100B50002D003000330001010000040107010A01EB
:100B600000002200250028002B002E003100340058
:100B700002010000050108010B0105050505070537
:100B800008080808020202020A0A08080404040409
:100B90000101010101010101030303030303030335
:100BA000040707070C0C0C0C0C0C0C0C02020202C4
:100BB00006060606060606060B0B0B0B0B0B0B0BAD
:100BC000010210202008081020401020408002015F
:100BD0000201080402010102040810204080804044
:100BE0002010080402018004020180402010080443
:100BF00002010804020101020408102040800102E1
:100C000004081020408000000A0B02090C0D0E0899
:100C100007030401000000000000000000000000C5
:100C200000000000000000000000000000000000C4
:100C30000000121110000000000000000000000081
:100C400000000000000000000000000057726974FE
:100C5000696E6720746F2066696C653A20002E000B
:100C60006F70656E206661696C65642C2046696CE6
:100C7000653A20002E006F70656E206661696C65B4
:100C8000642C2046696C653A200046696C652073C7
:100C9000656C6563746564002053697A653A200069
:100CA00046696C65206F70656E65643A20002E00A1
:100CB0006F70656E206661696C65642C2046696C96
:100CC000653A2000526573746F7265204661696CE5
:100CD00073616665004C6F6164206D656D6F72793C
:100CE0000053746F7265206D656D6F7279004D6F82
:100CF00074696F6E004D61696E0045737465707341
:100D00002F6D6D004573746570732F6D6D005A7390
:100D1000746570732F6D6D005A73746570732F6DE9
:100D20006D005973746570732F6D6D005973746520
:100D300070732F6D6D005873746570732F6D6D0037
:100D40005873746570732F6D6D00412D72657472E8
:100D500061637400412D7265747261637400416D4A
:100D60006178206500416D6178206500416D617892
:100D7000207A00416D6178207A00416D6178207998
:100D800000416D6178207900416D617820780041E3
:100D90006D61782078005654726176206D696E001E
:100DA0005654726176206D696E00566D696E0056FC
:100DB0006D696E00566D6178206500566D61782012
:100DC0006500566D6178207A00566D6178207A0052
:100DD000566D6178207900566D6178207900566DE6
:100DE0006178207800566D617820780056652D6A0C
:100DF00065726B0056652D6A65726B00567A2D6AB6
:100E000065726B00567A2D6A65726B005678792D83
:100E10006A65726B005678792D6A65726B00416362
:100E200063656C00416363656C00436F6E74726F41
:100E30006C00506978656C3A20004C3A2000593AB1
:100E40002000583A200024F4D43050C38E20C2A28F
:100E50004017828B7011127A910D816CD90AA861AA
:100E6000E108C7586607615143061E4B5D05C14541
:100E7000A7041A411104093D980371393103403622
:100E8000DB0265339102D4305402802E1D02632CA4
:100E9000EE01752AC501B028A001102781018F2518
:100EA00064012B244B01E0223401AC211F018D2071
:100EB0000D01801FFC00841EED00971DDF00B81C93
:100EC000D200E61BC600201BBC00641AB200B21997
:100ED000A8000A19A0006A189900D11791004017BC
:100EE0008B00B516840031167E00B31579003A15D3
:100EF0007300C7146F0058146A00EE13660088135D
:100F0000630025135E00C7125B006C1257001512B8
:100F10005400C111510070114F0021114B00D61027
:100F200049008D1047004610440002104200C00FD7
:100F30004000800F3E00420F3C00060F3B00CB0EEE
:100F40003800930E37005C0E3500270E3400F30D89
:100F50003200C10D3100900D3000600D2E00320DB9
:100F60002D00050D2C00D90C2B00AE0C2900850C92
:100F700029005C0C2700350C27000E0C2600E80B1E
:100F80002400C40B2400A00B23007D0B23005A0B6C
:100F90002100390B2100180B2000F80A1F00D90A84
:100FA0001E00BB0A1E009D0A1D00800A1D00630A68
:100FB0001C00470A1B002C0A1B00110A1A00F70923
:100FC0001A00DD091900C4091900AB0919009209BA
:100FD00017007B091800630917004C091600360931
:100FE0001600200916000A091500F5081500E0088A
:100FF0001400CC081400B8081400A40814009008C9
:1010000013007D0812006B081300580812004608F0
:101010001200340811002308110012081100010801
:101020001100F0071000E0071000D0071000C00703
:101030001000B0070F00A107100091070E008307F2
:101040000F0074070F0065070E0057070E004907D1
:101050000E003B070D002E070E0020070D001307A2
:101060000D0006070D00F9060C00ED060D00E00668
:101070000C00D4060C00C8060C00BC060C00B00620
:101080000C00A4060B0099060C008D060B008206CE
:101090000B0077060B006C060B0061060A00570672
:1010A0000B004C060A0042060A0038060A002E060B
:1010B0000A0024060A001A060A001006090007069C
:1010C0000A00FD050900F4050900EB050900E20529
:1010D0000900D9050900D0050900C7050900BE05AA
:1010E0000900B5050800AD050800A50509009C0527
:1010F0000800940508008C050800840508007C059C
:101100000800740508006C050700650508005D050A
:101110000700560508004E05070047050700400573
:10112000080038050700310507002A0507002305D8
:1011300007001C050600160507000F050700080537
:10114000060002050700FB040600F5040700EE0494
:101150000600E8040600E2040700DB040600D504EC
:101160000600CF040600C9040600C3040600BD043F
:101170000600B7040600B1040500AC040600A6048E
:101180000600A00405009B040600950405009004D9
:1011900006008A04050085040500800406007A0420
:1011A000050075040500700405006B040500660465
:1011B0000500610405005C040500570405005204A5
:1011C00005004D04050048040500430405003E04E5
:1011D00004003A04050035040500300404002C0422
:1011E000050027040400230405001E0404001A045B
:1011F000040016040500110404000D040400090491
:1012000005000404040000040400FC030400F803C7
:101210000400F4030400F0030400EC030400E803FA
:101220000400E4030400E0030400DC030400D8032A
:101230000400D4030400D0030400CC030400C8035A
:101240000300C503030024F404D9201BC40C5C0E66
:101250009804C4095F0265077101F405F900FB04F5
:10126000B30048048700C103690058035500030315
:101270004500BE023A008402310053022A002902CE
:10128000250004022000E4011C00C8011900AF0180
:10129000170098011400840113007101100061010E
:1012A000100051010E0043010D0036010B002B010F
:1012B0000B0020010B00150109000C0109000301BE
:1012C0000800FB000800F3000800EB000700E40042
:1012D0000600DE000600D8000600D2000600CC00A2
:1012E0000500C7000500C2000500BD000400B900EC
:1012F0000400B5000400B1000400AD000400A90022
:101300000400A5000300A20003009F0004009B004E
:101310000300980003009500020093000300900072
:1013200003008D0002008B0003008800020086008D
:10133000020084000300810002007F0002007D00A3
:1013400002007B00020079000200770001007600B5
:1013500002007400020072000100710002006F00C0
:1013600002006D0001006C0002006A0001006900CB
:1013700002006700010066000100650001006400D2
:1013800002006200010061000100600001005F00D6
:1013900002005D0001005C0001005B0001005A00DA
:1013A00001005900010058000100570001005600DB
:1013B00001005500010054000100530000005300DB
:1013C00001005200010051000100500001004F00D7
:1013D00001004E0000004E0001004D0001004C00D5
:1013E00001004B0000004B0001004A0001004900D1
:1013F00001004800000048000100470001004600CD
:1014000000004600010045000000450001004400C6
:1014100001004300000043000100420000004200C0
:1014200001004100000041000100400001003F00B8
:1014300000003F0001003E0000003E0001003D00B2
:1014400000003D0001003C0000003C0000003C00AA
:1014500001003B0000003B0001003A0000003A00A0
:101460000100390000003900010038000000380098
:10147000000038000100370000003700010036008E
:101480000000360000003600010035000000350085
:10149000000035000100340000003400000034007A
:1014A000010033000000330000003300010032006F
:1014B0000000320000003200010031000000310065
:1014C000000031000100300000003000000030005A
:1014D00001002F0000002F0000002F0000002F004F
:1014E00001002E0000002E0000002E0001002D0043
:1014F00000002D0000002D0000002D0001002C0038
:1015000000002C0000002C0000002C0001002B002B
:1015100000002B0000002B0000002B0001002A001F
:1015200000002A0000002A0000002A000100290013
:101530000000290000002900000029000000290007
:1015400001002800000028000000280000002800FA
:1015500000002800010027000000270000002700ED
:1015600000002700000027000100260000002600E0
:1015700000002600000026000000260001002500D3
:1015800000002500000025000000250000002500C7
:1015900000002500010024000000240000002400B9
:1015A00000002400000024000100230000002300AC
:1015B000000023000000230000002300000023009F
:1015C0000000230001002200000022000000220091
:1015D0000000220000002200000022000100210083
:1015E0000000210000002100000021000000210077
:1015F0000000210000002100010020000000200068
:10160000000020000000200000002000000020005A
:10161000000020000000200001001F0000001F004B
:1016200000001F0000001F0000001F0000001F003E
:1016300000001F0001001E0000001E0000001E0030
:1016400000001E00000053706565640053706565FE
:1016500064004D61696E004D6F7665204178697355
:10166000004D38300053776974636820506F776598
:1016700072204F6E004D38310053776974636820D3
:10168000506F776572204F666600473932205830B8
:10169000205930205A3000536574204F72696769B1
:1016A0006E00473238205820592046323030300002
:1016B0004175746F20486F6D65004D313700456E80
:1016C00061626C65205374657070657273004D388B
:1016D000340044697361626C652053746570706591
:1016E0007273004D61696E00580059005A004578C8
:1016F0007472756465720045787472756465720001
:101700004D6F7665205A004D6F76652059004D6FFC
:1017100076652058004D6F76652041786973004DDD
:101720006F766520302E316D6D004D6F76652031FE
:101730006D6D004D6F76652031306D6D00507265B6
:1017400070617265002D2D3A2D2D002D2D2D005329
:1017500044002059004D383420582059205A204543
:10176000004E6F2043617264005072696E7420668F
:10177000726F6D2053440053746F70205072696E05
:101780007400526573756D65205072696E740050F7
:1017900061757365205072696E7400436F6E747268
:1017A0006F6C00507265706172650054756E6500F3
:1017B0004C617365722046756E6374696F6E730059
:1017C000496E666F2073637265656E004B494C4CC1
:1017D00045442E20005072696E7465722068616CF9
:1017E0007465642E206B696C6C28292063616C6CB5
:1017F0006564210053544F505045442E20005072D0
:10180000696E7465722073746F707065642064759E
:101810006520746F206572726F72732E204669782E
:1018200020746865206572726F7220616E64207525
:101830007365204D39393920746F20726573746176
:1018400072742E202854656D7065726174757265AE
:101850002069732072657365742E20536574206946
:101860007420616674657220726573746172746944
:101870006E6729000000A0400000A0400000803FEB
:1018800000005C430000344300009642FFFFFF7CF1
:101890003C3E5E2B3D3F2F5B5D3B2C2A225C004C87
:1018A0006173657220666972696E6720656E616238
:1018B0006C6564006563686F3A004361726420720E
:1018C000656D6F766564004361726420696E73654F
:1018D000727465640002526573656E643A20006F2D
:1018E0006B004572723A204D415854454D50003AB4
:1018F00020457874727564657220737769746368C3
:101900006564206F66662E204D415854454D502029
:101910007472696767657265642021004572723A66
:10192000204D494E54454D50003A2045787472750B
:10193000646572207377697463686564206F666696
:101940002E204D494E54454D50207472696767658D
:101950007265642021004572726F723A005465739B
:101960007420466972650053657420466F63757311
:10197000004D61696E005761726D2D7570204C616C
:101980007365722032736563003130302520313049
:10199000306D730031303025202035306D730020DC
:1019A000323025203130306D730020323025202038
:1019B00035306D73004C617365722046756E6374CB
:1019C000696F6E73000056AB0FAC11241FBECFEFD2
:1019D000D1E2DEBFCDBF00E00CBF15E0A0E0B2E079
:1019E000E8E0FFE601E00BBF02C007900D92AC32C9
:1019F000B107D9F728E1ACE2B5E001C01D92A231F0
:101A0000B207E1F71CE0C4EEDCE000E006C021977D
:101A10000109802FFE010E9409B7C33ED10780E073
:101A20000807A9F70E946DA20C9473B70C940000EC
:101A30002F923F924F925F926F927F928F929F92DE
:101A4000AF92BF92CF92DF92EF92FF920F931F93CC
:101A5000CF93DF93CDB7DEB7C956D1090FB6F8944F
:101A6000DEBF0FBECDBF87E40E94772DF82E8823FE
:101A700009F4D8C40E949D2D0E949BB46430710566
:101A800009F414C194F46130710591F124F4672BC9
:101A900029F10C94A0266230710509F472C06330FC
:101AA000710509F4B6C00C94A0266A35710509F4D5
:101AB0003FC454F46730710509F43EC16C317105BF
:101AC00009F4F7C20C94A0266B35710509F434C4EF
:101AD0006C35710509F435C40C94A0268091FE057F
:101AE000811106C00E94D0940E94C3930C94B82C1C
:101AF0008091FE05811145C00E94D09483E50E942B
:101B0000772D882331F08091FE05882311F40C9401
:101B1000A3268CE40E94772D882331F08091FE0566
:101B2000882311F40C94AE2680E50E94772D88233B
:101B300031F08091FE05882311F40C94C42684E4CE
:101B40000E94772D882331F08091FE05882311F4BF
:101B50000C94CF2682E40E94772D882331F0809167
:101B6000FE05882311F40C94DD2681E08093EF16A6
:101B70008AE090E09093DE168093DD160E94C39376
:101B800091C08091FE05811144C00E94559583E566
:101B90000E94772D882331F08091FE05882311F46F
:101BA0000C94E5268CE40E94772D882331F08091F7
:101BB000FE05882311F40C94F02680E50E94772D11
:101BC000882331F08091FE05882311F40C940627B8
:101BD00084E40E94772D882331F08091FE058823CC
:101BE00011F40C94112782E40E94772D882331F0A0
:101BF0008091FE05882311F40C941F2781E08093C7
:101C0000EF168AE090E09093DE168093DD1681E077
:101C100047C08091FE05811149C00E94559583E51A
:101C20000E94772D882331F08091FE05882311F4DE
:101C30000C9427278CE40E94772D882331F0809123
:101C4000FE05882311F40C94322780E50E94772D3D
:101C5000882331F08091FE05882311F40C944827E5
:101C600084E40E94772D882331F08091FE0588233B
:101C700011F40C94532782E40E94772D882331F0CD
:101C80008091FE05882311F40C94612781E08093F4
:101C9000EF168AE090E09093DE168093DD1680E0E8
:101CA0000E9483901092EF160C94B82C84EF94E06D
:101CB0000E949A8C80E50E94772D882339F00E943B
:101CC0009D2D0E94A0B46B017C0103C0C12CD12CBE
:101CD000760183E50E94772D882361F00E949D2D77
:101CE00020E030E04AE754E40E9433AC0E94A0B404
:101CF0006B017C010E94A6990E9417A2C60ED71EF6
:101D0000E81EF91E0E9417A26093A4177093A517EE
:101D10008093A6179093A7170E9417A26C157D05B4
:101D20008E059F0510F00C94A0260E94D2970E9469
:101D30004F8E0E94CB8CF0CF8CE40E94772D8823AD
:101D400041F00E949D2D0E949BB4709349176093AF
:101D5000481784E20E94772D882399F10E949D2DD7
:101D600011E020E030E0A9010E94F4AF811101C030
:101D700010E010934C17209140173091411740917B
:101D80004217509143176091441770914517809105
:101D90004617909147170E9433AC9B01AC016091AC
:101DA000D9097091DA098091DB099091DC090E94D0
:101DB00057B36093571770935817809359179093A0
:101DC0005A1784E40E94772D882309F491C08091EA
:101DD0000306909104069C012F5F3F4F6901A0907C
:101DE0004817B0904917A20EB31EE12CF12C00E069
:101DF00010E04E0135E0830E911CCA14DB0429F07B
:101E0000D6012D916D012D3359F4C701011511052E
:101E100009F466C0FE0131966F01E00FF11F30C07A
:101E2000C8010196E1E0F0E0EC0FFD1FE00FF11FAB
:101E300020838430910511F58E010F5F1F4FF8014B
:101E400080810E942E35D8018D938D01A815B9058A
:101E5000B1F7BE016F5F7F4FCE0180960E944A3579
:101E6000F701E352F94E88A1868F89A1878F8AA155
:101E700080A3B3E0EB0EF11C80E090E08C01BDCFBD
:101E80005601CF018C199D09049714F41192F8CFD3
:101E90004E01F5E08F0E911CD5018C910E942E35DC
:101EA000F50181935F01E815F905B1F7B601CE019F
:101EB00080960E944A35FE01B09620E030E0015045
:101EC0001109C9018E0D9F1D201731074CF4419156
:101ED000DC01A352B94E5E964C932F5F3F4FF1CF7A
:101EE000FC01E352F94E168E90934B1780934A17DC
:101EF00080914C1760914A1770914B171091F6160C
:101F0000811145C0072E000C880B990B0E94FAAF77
:101F1000209144173091451740914617509147172B
:101F20000E9433AC9B01AC016091D5097091D60938
:101F30008091D7099091D8090E9456B360935317A6
:101F4000709354178093551790935617112309F4E3
:101F500064C0EBEEF5E08491882341F09091C000DD
:101F600095FFFCCF8093C6003196F5CFE7E0F3E014
:101F70008191882339F09091C00095FFFCCF809328
:101F8000C600F6CF8091C00085FFFCCF43C0072E6E
:101F9000000C880B990B0E94FAAF209144173091E6
:101FA000451740914617509147170E9433AC9B014B
:101FB000AC016091D5097091D6098091D7099091B3
:101FC000D8090E9457B360935317709354178093A6
:101FD000551790935617112301F1EBEEF5E084911C
:101FE000882341F09091C00095FFFCCF8093C600FC
:101FF0003196F5CFECE1F3E08191882339F09091AF
:10200000C00095FFFCCF8093C600F6CF8091C00042
:1020100085FFFCCF8AE08093C60020914417309161
:102020004517409146175091471760E070E080E8EF
:102030009FE30E9433B46B017C016093E3167093BD
:10204000E4168093E5169093E61620E030E040E732
:1020500052E460911B0270911C0280911D029091CC
:102060001E020E9433B49B01AC0160E074E284E77D
:1020700099E40E9433B4A70196010E9433B40E94F0
:10208000A0B46093E7167093E8168093E9169093D6
:10209000EA1682E08093F11681E08093EF1682E0E9
:1020A00090E09093DE168093DD160E94C3930C940B
:1020B000A02680911B0290911C02A0911D02B0915C
:1020C0001E0280935E0590935F05A0936005B09318
:1020D0006105809118029091190290935D0580939B
:1020E0005C0584E690E090931902809318020E94A8
:1020F00017A26093A4177093A5178093A6179093C7
:10210000A71711E010930C028091D5099091D60980
:10211000A091D709B091D809809353179093541781
:10212000A0935517B09356178091D9099091DA0969
:10213000A091DB09B091DC09809357179093581751
:10214000A0935917B0935A178091DD099091DE0939
:10215000A091DF09B091E00980935B1790935C1721
:10216000A0935D17B0935E178091E1099091E20909
:10217000A091E309B091E40980935F1790936017F1
:10218000A0936117B093621710921B0210921C0269
:1021900010921D0210921E0288E50E94772D88235E
:1021A00011F080E009C089E50E94772D8111F9CFF7
:1021B0008AE50E94772D81278093050281110C9476
:1021C000692788E50E94772D882331F089E50E94F0
:1021D000772D81110C9469278091050281110C944F
:1021E000662888E50E94772D81110C9466288091DD
:1021F000050281110C946C2889E50E94772D8111CC
:102200000C946C288091050281110C9472288AE547
:102210000E94772D81110C94722888E50E94772DF9
:102220008823D1F00E94922D672B682B692BA1F097
:102230000E949D2D20912C0530912D0540912E0559
:1022400050912F050E9457B36093D5097093D6091A
:102250008093D7099093D80989E50E94772D882328
:10226000D1F00E94922D672B682B692BA1F00E9460
:102270009D2D2091300530913105409132055091CE
:1022800033050E9457B36093D9097093DA0980939C
:10229000DB099093DC098AE50E94772D8823D1F031
:1022A0000E94922D672B682B692BA1F00E949D2D17
:1022B0002091340530913505409136055091370510
:1022C0000E9457B36093DD097093DE098093DF09A4
:1022D0009093E0090E94E73710920C0280915E050E
:1022E00090915F05A0916005B091610580931B02FC
:1022F00090931C02A0931D02B0931E0280915C0576
:1023000090915D0590931902809318020E9417A284
:102310006093A4177093A5178093A6179093A7179F
:102320001092190610921806109217060C94A02607
:1023300010928B170C94A02681E080938B170C943D
:10234000A02685E40E94772D811102C00E94A699E3
:10235000B4EFAB2EB2E0BB2E15EDE12E19E0F12E5D
:102360000CE2C02E05E0D02E10E0D5018D915D016C
:102370000E94772D882309F449C01330B9F50E94D3
:102380009D2DF70160837183828393832091150AC9
:102390003091160A4091170A5091180A6091E1098C
:1023A0007091E2098091E3099091E4090E9433ACB5
:1023B0000E942FB66093050A7093060A8093070A5D
:1023C0009093080A8FB7F8944091050A5091060A35
:1023D0006091070A7091080A4093D1095093D2097D
:1023E0006093D3097093D4098FBF10C00E949D2DB4
:1023F000D6012D913D914D915C910E9457B3F7010B
:1024000060837183828393830E94E7371F5FF4E0C8
:10241000EF0EF11C24E0C20ED11C143009F0A5CF40
:102420000C94A0268DE40E94772D882311F40C943F
:10243000D5250E949D2D0E949BB46A36710511F42A
:102440000C94861A0CF099C06B31710509F494C292
:102450000CF041C06431710509F4F6C10CF563302C
:10246000710509F49AC134F46230710508F437C17A
:102470000C94A0266131710509F4D5C16231710552
:1024800011F40C94EB1A6530710511F00C94A02630
:102490001092EF160E94CB8C0E94C3930C94A0263E
:1024A0006731710509F427C27CF46531710509F4BF
:1024B0001EC26631710511F00C94A0261092340AE8
:1024C0001092350A0C94A0266931710509F43CC2BA
:1024D0000CF427C243C26135710511F40C94C91A7A
:1024E000F4F46F31710509F4ABC454F46C31710527
:1024F00009F496C26E31710509F4C4C20C94A02689
:102500006A32710509F424C56035710511F40C9423
:10251000BC1A6032710511F00C94A0262BC46535ED
:10252000710511F40C94231B64F46335710511F4E7
:102530000C94E61A14F00C94EB1A10928F170C946A
:10254000A0266836710509F421C50CF050C56C351C
:10255000710511F00C94A02694EF892E92E0992E2B
:1025600009E01AE029E6A22E2CE0B22E29E83CE090
:102570003CAF2BAF312C0C94A11B6D3C710511F4B9
:102580000C94061E0CF050C06837710511F40C94C1
:10259000B01C14F56237710511F40C94D21B54F47D
:1025A0006B36710509F4E2C76D36710509F40CC686
:1025B0000C94A0266537710511F40C94BD1B673788
:1025C000710509F488C06337710511F00C94A026D9
:1025D000E0E7F3E00C94B81B6E3B710509F498C674
:1025E0005CF46937710511F40C94B41C6C387105F6
:1025F00009F4ECC40C94A0266B3C710511F40C9406
:10260000C61D14F00C94E41D693C710511F00C9486
:10261000A026B1E5EB2EBCE0FB2E04EF12E084E037
:10262000D82ED00E0C94AD1D603931E0730711F433
:102630000C9459252CF56D3D710511F40C94951EE3
:1026400064F46E3C710511F40C94661E6C3D7105CA
:1026500011F40C94841E0C94A0266D3251E0750781
:1026600011F40C9454216F3281E0780711F40C942A
:102670001A226C32714011F00C94A0260C94A51E05
:10268000673FA1E07A0711F40C94622594F4653F4A
:10269000E1E07E0711F40C945C2514F00C945F25A6
:1026A000643F714011F00C94A0260E9443340C94B6
:1026B000A026603A33E0730709F48DC3673E43E018
:1026C000740711F40C94BE256938724011F00C9413
:1026D000A0260C946525E1E3F3E00C94BF1C83EE87
:1026E00094E00E949A8C80E50E94772D882339F02F
:1026F0000E949D2D0E94A0B46B017C0103C0C12CDF
:10270000D12C760183E50E94772D882361F00E9409
:102710009D2D20E030E04AE754E40E9433AC0E9453
:10272000A0B46B017C010E94A6990E9417A260933D
:10273000A4177093A5178093A6179093A717C11499
:10274000D104E104F104F1F00E9417A2C60ED71ED5
:10275000E81EF91E0E9417A26C157D058E059F05C7
:1027600030F084ED94E00E949A8C0C94A026809125
:102770006A1782FDF6CF0E94D2970E944F8E0E9468
:10278000CB8CE8CF80916A1782FDEBCF0E94D29765
:102790000E944F8E0E94CB8CF5CF83E50E94772D4F
:1027A000882331F08091FE05882311F40C94782859
:1027B0008CE40E94772D882331F08091FE058823D8
:1027C00011F40C94832880E50E94772D882331F042
:1027D0008091FE05882311F40C94992884E40E94CA
:1027E000772D882331F08091FE05882311F40C9415
:1027F000A42882E40E94772D882331F08091FE0581
:10280000882311F40C94B22881E08093EF168BE0BA
:1028100090E09093DE168093DD160E94CB8C0E9490
:10282000C3930C94A0268BEC94E00E949A8C5F9842
:102830008A989FB7F894809108018E7F8093080151
:102840009FBF12980C94A026EBEBF4E084918823B0
:1028500041F09091C00095FFFCCF8093C600319667
:10286000F5CF8091C00085FFFCCF8AE08093C60041
:102870001092290C1092280C40E050E0BA0185E635
:102880009AE00E94113F8BE1E5E6FAE0DE01159641
:1028900001900D928A95E1F78091630A9091640A04
:1028A0009C838B8380E992E09A838983BE016F5F6A
:1028B0007F4F88E094E00E940C4FCE0101960E9469
:1028C000D678EDEAF4E08491882341F09091C0003D
:1028D00095FFFCCF8093C6003196F5CF8091C00064
:1028E00085FFFCCF8AE08093C6000C94A0260E944E
:1028F00083380C94A02600910306109104060C5F07
:102900001F4F6AE270E0C8010E9444B7009719F0B7
:10291000FC013197108261E0C8010E94214D0C94A6
:10292000A0268091350A882319F081E08093340A2B
:102930000E9417A2609372057093730580937405CB
:10294000909375050C94A0268091340A882311F485
:102950000C94A0261092340A0C94A0268091350A7B
:10296000882311F40C94A02683E50E94772D811111
:102970000C94BA280C94A0268091350A882309F477
:1029800039C0E5ECF1E08491882341F09091C000DA
:1029900095FFFCCF8093C6003196F5CF6091230C54
:1029A0007091240C8091250C9091260C4AE00E9495
:1029B000C836E3ECF1E08491882341F09091C000A7
:1029C00095FFFCCF8093C6003196F5CF60911B0C2C
:1029D00070911C0C80911D0C90911E0C4AE00E947D
:1029E000C8368091C00085FFFCCF8AE08093C60086
:1029F0000C94A026E7EDF1E08491882341F09091BA
:102A0000C00095FFFCCF8093C6003196F5CF809132
:102A1000C00085FFFCCF8AE08093C6000C94A026FE
:102A200080910306909104066AE270E004960E9489
:102A300044B78C01892BE1F020919A0730919B07D4
:102A400040E6429FC001439F900D11246EE470E068
:102A5000865E994F0E9444B760E270E00E9444B7DE
:102A600001969093040680930306F8013197108233
:102A7000809103069091040660E004960E94214D27
:102A80000C94A0268091350A882311F40C94A0267A
:102A90000E94FF4E80910306909104066AE270E066
:102AA00004960E9444B78C01892BE1F020919A078B
:102AB00030919B0740E6429FC001439F900D112437
:102AC0006EE470E0865E994F0E9444B760E270E069
:102AD0000E9444B701969093040680930306F80180
:102AE0003197108200910306109104068091350AF7
:102AF000882311F40C94A026580184E0A80EB11C80
:102B000080E09CE00E9465741092340A1D82188651
:102B10001C821B8280E992E09A83898381E69AE095
:102B20009093810A8093800AD80114968C918F32F9
:102B300009F08FC06FE270E0C5010E9444B78C01BC
:102B40000F5F1F4FAAE0EA2EFE0131964F010115DB
:102B5000110509F484C06FE270E0C8010E9444B717
:102B60006C01009709F47CC00817190708F078C0B9
:102B70003C01601A710AA301B801CE0180960E943F
:102B800064B7E0E2F0E0EC0FFD1FE60DF71D1082E8
:102B90008E01005E1F4FF8018191882339F09091DA
:102BA000C00095FFFCCF8093C600F6CF8091C00097
:102BB00085FFFCCFE092C6006091800A7091810A87
:102BC0006115710511F06C5F7F4F21E0AE01405E31
:102BD0005F4FCE0105960E946E74811132C0E1E113
:102BE000F2E08491882371F09091C00095FFFCCFB2
:102BF0008093C6003196F5CF9091C00095FFFCCF31
:102C00008093C600D8018D918D018111F5CFEFE041
:102C1000F2E08491882341F09091C00095FFFCCFB1
:102C20008093C6003196F5CF8091C00085FFFCCF20
:102C30008AE08093C600CE0101960E94D6780C945B
:102C4000A0269092810A8092800A86010F5F1F4F12
:102C50007ECF82E89AE09093810A8093800A850172
:102C60006091800A7091810A6115710511F06C5FA5
:102C70007F4F18A21BA222E0A801CE0180960E94DD
:102C80006E748823F1F0CE0180960E948F4C8823C9
:102C9000C1F06CA57DA58EA59FA541E00E94203DB9
:102CA000882379F0E8A9B0E2EB9FF0011124E65403
:102CB000F84F309731F085EE80831BA20E94E03CF4
:102CC000F82ECE0180960E94AB2EFF2009F1E1E0A4
:102CD000F2E08491882341F09091C00095FFFCCFF1
:102CE0008093C6003196F5CFF8018191882339F0A1
:102CF0009091C00095FFFCCF8093C600F6CF109254
:102D0000230C1092240C1092250C1092260C2CC02F
:102D1000E9EEF1E08491882341F09091C00095FFA5
:102D2000FCCF8093C6003196F5CFF80181918823BE
:102D300039F09091C00095FFFCCF8093C600F6CF8C
:102D4000E7EEF1E08491882341F09091C00095FF77
:102D5000FCCF8093C6003196F5CF8091C00085FFEF
:102D6000FCCF8AE08093C600CE0101960E94D678FF
:102D70000C94A0268091340A882331F00E94A699F1
:102D80000E94FF4E1092340A00910306109104062F
:102D90000C5F1F4F6AE270E0C8010E9444B70097C1
:102DA00019F0FC013197108261E0C8010E94214DA9
:102DB0008091350A882319F081E08093340A0E94BB
:102DC00017A26093720570937305809374059093B6
:102DD00075050C94A02680910306909104066AE282
:102DE00070E005960E9444B78C01892BE1F0209198
:102DF0009A0730919B0740E6429FC001439F900D88
:102E000011246EE470E0865E994F0E9444B760E240
:102E100070E00E9444B701969093040680930306E5
:102E2000F80131971082809103069091040621E009
:102E30002093330A60E005960E94214D0C94A02651
:102E40000E9417A2609376057093770580937805AA
:102E50009093790500917205109173052091740586
:102E600030917505601B710B820B930B28EE33E0DC
:102E700040E050E00E941BB3CA01B9012CE330E0EE
:102E800040E050E00E941BB37F936F933F932F93DA
:102E90008EE994E09F938F938E010F5F1F4F1F93D6
:102EA0000F930E94C5AFEBEEF5E094910FB6F89446
:102EB000DEBF0FBECDBFEBEEF5E0992349F0809168
:102EC000C00085FFFCCF9093C60031969491F5CF5A
:102ED000F8018191882339F09091C00095FFFCCFD3
:102EE0008093C600F6CF8091C00085FFFCCF8AE0BA
:102EF0008093C600C8010E94BC8C80917105882314
:102F000011F40C94A026109271050091700510E048
:102F1000000F111F02591A4FD8016D917C91072E95
:102F2000000C880B990B0E94FAAF20910D02309192
:102F30000E0240910F02509110020E9482B51816A5
:102F400014F00C94A026F801118210820C94A02693
:102F500083E50E94772D882311F40C94A0260E940B
:102F60009D2D6B017C0180E50E94772D882311F453
:102F70000C94A026C701B6010E949BB46F3F710557
:102F800009F010F40C94CA280C94A02688E690E06E
:102F90000E94DE7881110C94A02683E50E94772D93
:102FA000882311F40C94A026109152170E949D2D95
:102FB000212F30E0220F331F890102591A4F0E943E
:102FC0009BB4D8016D937C930C94A02683E50E945A
:102FD000772D882311F40C94A0260E949D2D0E9429
:102FE0009BB47093CC176093CB170C94A02689E602
:102FF00090E00E94DE7881110C94A026E8E9F4E0CC
:103000008491882341F09091C00095FFFCCF80937C
:10301000C6003196F5CFE0915217B4E0EB9FF00176
:103020001124EA53F84E608171818281938141E0DD
:103030000E944F37E5E9F4E08491882341F09091B4
:10304000C00095FFFCCF8093C6003196F5CFE0918C
:103050005217F0E0EE0FFF1FE259FA4F60817181C5
:10306000072E000C880B990B0E94FAAF41E00E94DA
:103070004F37E1E9F4E08491882341F09091C0005A
:1030800095FFFCCF8093C6003196F5CF6091C217B3
:103090007091C3178091C4179091C51741E00E94A9
:1030A0004F37EEE8F4E08491882341F09091C0001E
:1030B00095FFFCCF8093C6003196F5CF6091CB177A
:1030C0007091CC17072E000C880B990B0E94FAAF59
:1030D00041E00E944F37EBE8F4E08491882341F00F
:1030E0009091C00095FFFCCF8093C6003196F5CF3C
:1030F00060E070E0CB010E943D37E9E8F4E08491A4
:10310000882341F09091C00095FFFCCF8093C600CA
:103110003196F5CF6091C6177091C7178091C81787
:103120009091C91741E00E944F37E6E8F4E084919E
:10313000882341F09091C00095FFFCCF8093C6009A
:103140003196F5CF60916E0570916F05072E000CDA
:10315000880B990B0E94FAAF41E00E944F37E2E8DA
:10316000F4E08491882341F09091C00095FFFCCF5A
:103170008093C6003196F5CFE0915217F0E0E2530C
:10318000F84E608170E080E090E00E943D37EDE70E
:10319000F4E08491882341F09091C00095FFFCCF2A
:1031A0008093C6003196F5CF6091CA1770E080E039
:1031B00090E00E943D378091C00085FFFCCF8AE0FF
:1031C0008093C6000C94B82C8DE690E00E94DE78C7
:1031D00081110C94A02682E794E00E949A8C1092B0
:1031E000710583E50E94772D8823A1F01091521775
:1031F0000E949D2D212F30E0220F331F890102599B
:103200001A4F0E949BB4F8017183608381E0809320
:10321000040217C082E50E94772D882391F0109157
:1032200052170E949D2D212F30E0220F331F89015C
:1032300002591A4F0E949BB4D8016D937C9310924F
:10324000040283E50E94772D882351F00E949D2D72
:1032500060930D0270930E0280930F029093100200
:1032600082E40E94772D882351F00E949D2D609367
:10327000430270934402809345029093460286E491
:103280000E94772D882369F00E949D2D609347024C
:10329000709348028093490290934A0281E08093A0
:1032A00071050E9417A22B013C010091521710E0FA
:1032B000F801EE0FFF1FE259FA4F60817181072E6E
:1032C000000C880B990B0E94FAAF000F111F000F22
:1032D000111FF801EA53F84E11E02081318142813B
:1032E00053810E9482B518160CF010E010935B0514
:1032F00088248A94982C540107E6202E04E0302E6E
:1033000088EEC82E83E0D82EE12CF12C0C942A29CB
:103310008CE494E00E949A8C83E50E94772D8823A8
:1033200061F00E949D2D0E949BB47093CC17609316
:10333000CB1781E0809304020FC082E50E94772DB5
:10334000882351F00E949D2D0E949BB47093CC174E
:103350006093CB17109204020E9417A24B015C01EC
:103360006091CB177091CC17072E000C880B990B2E
:103370000E94FAAF11E02091C2173091C31740911B
:10338000C4175091C5170E9482B518160CF010E0B2
:1033900010935B0509E414E035E4E32E34E0F32EEA
:1033A00041E4C42E44E0D42E5AE0752E80915B0592
:1033B0006091CB177091CC17882309F480C0072E39
:1033C000000C880B990B0E94FAAF2091C217309124
:1033D000C3174091C4175091C5170E9482B51816A3
:1033E0000CF084C00E9417A2DC01CB018819990956
:1033F000AA09BB09893E9340A105B10508F458C04C
:10340000E091700524E0E29FF0011124EA53F84EA8
:103410006081718182819381F8012491E9E4F4E073
:10342000222349F03091C00035FFFCCF2093C60025
:1034300031962491F5CF42E00E944F37F7018491F5
:10344000E5E4F4E0882349F09091C00095FFFCCFBB
:103450008093C60031968491F5CF6091700570E03D
:1034600080E090E00E943D37F6018491E1E4F4E0D1
:10347000882349F09091C00095FFFCCF8093C6004F
:1034800031968491F5CF6091C2177091C3178091E6
:10349000C4179091C51741E00E944F378091C0003A
:1034A00085FFFCCF7092C6000E9417A24B015C0101
:1034B0000E94D2970E944F8E0E94CB8C77CF072E0E
:1034C000000C880B990B0E94FAAF2091C217309123
:1034D000C3174091C4175091C5170E94F4AF87FFDE
:1034E00005C080910402882309F47CCF87E394E02F
:1034F0000E949A8C0E9417A26093A4177093A5173C
:103500008093A6179093A7170C94A02683E50E949A
:10351000772D882319F10E949D2D20E030E0A9012C
:103520000E94F4AF87FD0FC00E949D2D20E030E087
:103530004FE753E40E9482B5181644F00E949D2D77
:103540000E949BB405C060E070E002C06FEF70E0C5
:1035500070936817609367170C94A0268FEF90E024
:1035600090936817809367170C94A02610926817A1
:10357000109267170C94A026269A2E9881E08093CB
:103580001A0283E294E00E949A8C0E94CB8C0C94E5
:10359000A0260E94DC950E94A699129A0E94B399D7
:1035A000109268171092671768EE73E080E090E061
:1035B0000E94E652269A2E9A10921A0281E194E015
:1035C0000E949A8C0E94CB8C0C94A02681E0809360
:1035D0008F170C94A02683E50E94772D8823A1F0F5
:1035E0000E949D2D20E030E04AE754E40E9433AC75
:1035F0000E94A0B460939C1770939D1780939E17B0
:1036000090939F170C94A02688E50E94772D811136
:103610000C94122A89E50E94772D81110C94122AAC
:103620008AE50E94772D81110C94122A85E40E946C
:10363000772D81110C94122A0E94A699129A0E9449
:10364000B3990C94A02683E50E94772D0E949D2DAE
:1036500020E030E04AE754E40E9433AC0E94A0B47A
:103660006093A0177093A1178093A2179093A3174C
:103670000C94A026B3E03B126CC00E949D2D2B0140
:103680003C0120E030E040EA51E40E94F4AF87FFC3
:1036900041C0A3019201F80160817181828193810F
:1036A0000E9433B46B017C019B01AC016091790CE9
:1036B00070917A0C80917B0C90917C0C0E9433ACC1
:1036C0006093790C70937A0C80937B0C90937C0CB4
:1036D000A7019601D5016D917D918D919C910E94DC
:1036E00033ACF5016083718382839383ABADBCAD52
:1036F0006D917D918D919C910E94F8AFA7019601EB
:103700000E9433AC0E94A0B4EBADFCAD608371832A
:1037100082839383D8014D925D926D927C92139730
:1037200033940C5F1F4FF4E0AF0EB11C2BAD3CADDA
:103730002C5F3F4F3CAF2BAF34E0331611F40C94A9
:10374000A026D4018D914D010E94772D882341F34D
:1037500091CF0E949D2DF8016083718382839383B2
:10376000DFCF9091C00095FFFCCF8093C6003196CB
:1037700084918111F6CF0C94A0260091030610913C
:1037800004060B5F1F4F6AE270E0C8010E9444B755
:10379000009719F0FC0131971082C8010E94BC8C7F
:1037A0000C94A026EDE6F3E08491882341F09091FB
:1037B000C00095FFFCCF8093C6003196F5CF609195
:1037C000D5097091D6098091D7099091D80942E026
:1037D0000E944F37EAE6F3E08491882341F090910C
:1037E000C00095FFFCCF8093C6003196F5CF609165
:1037F000D9097091DA098091DB099091DC0942E0E6
:103800000E944F37E7E6F3E08491882341F09091DE
:10381000C00095FFFCCF8093C6003196F5CF609134
:10382000DD097091DE098091DF099091E00942E0A5
:103830000E944F37E4E6F3E08491882341F09091B1
:10384000C00095FFFCCF8093C6003196F5CF609104
:10385000E1097091E2098091E3099091E40942E065
:103860000E944F37E9E5F3E08491882341F090917D
:10387000C00095FFFCCF8093C6003196F5CF2FB7DF
:10388000F8946091C5097091C6098091C70990911B
:10389000C8092FBF0E94FAAF2091090A30910A0A85
:1038A00040910B0A50910C0A0E9433B442E00E94EE
:1038B0004F37E6E5F3E08491882341F09091C00012
:1038C00095FFFCCF8093C6003196F5CF2FB7F894C3
:1038D0006091C9097091CA098091CB099091CC0976
:1038E0002FBF0E94FAAF20910D0A30910E0A40912D
:1038F0000F0A5091100A0E9433B442E00E944F37E1
:10390000E3E5F3E08491882341F09091C00095FFB6
:10391000FCCF8093C6003196F5CF2FB7F894609115
:10392000CD097091CE098091CF099091D0092FBF18
:103930000E94FAAF2091110A3091120A4091130AA5
:103940005091140A0E9433B442E00E944F37809194
:10395000C00085FFFCCF8AE08093C6000C94A026AF
:1039600010920C020C94A02681E080930C020C941F
:10397000A0269091C00095FFFCCF8093C600819156
:103980008111F7CF8091C00085FFFCCF8AE0809342
:10399000C600EBE4F3E08491882341F09091C000ED
:1039A00095FFFCCF8093C6003196F5CF659B03C091
:1039B000E8EFF2E009C0EDEFF2E006C09091C00040
:1039C00095FFFCCF8093C60081918111F7CF809144
:1039D000C00085FFFCCF8AE08093C600E3E4F3E0FB
:1039E0008491882341F09091C00095FFFCCF809393
:1039F000C6003196F5CF649B03C0E8EFF2E009C042
:103A0000EDEFF2E006C09091C00095FFFCCF8093EF
:103A1000C60081918111F7CF8091C00085FFFCCF56
:103A20008AE08093C600EBE3F3E08491882341F0C1
:103A30009091C00095FFFCCF8093C6003196F5CFE2
:103A40008091030181FF03C0E8EFF2E009C0EDEFD0
:103A5000F2E006C09091C00095FFFCCF8093C600B5
:103A600081918111F7CF8091C00085FFFCCF8AE062
:103A70008093C600E3E3F3E08491882341F09091C2
:103A8000C00095FFFCCF8093C6003196F5CF8091A2
:103A9000030180FF03C0E8EFF2E009C0EDEFF2E0C0
:103AA00006C09091C00095FFFCCF8093C600819125
:103AB0008111F7CF8091C00085FFFCCF8AE0809311
:103AC000C600EBE2F3E08491882341F09091C000BE
:103AD00095FFFCCF8093C6003196F5CF4B9B03C07A
:103AE000E8EFF2E009C0EDEFF2E006C09091C0000F
:103AF00095FFFCCF8093C60081918111F7CF809113
:103B0000C00085FFFCCF8AE08093C600E3E2F3E0CB
:103B10008491882341F09091C00095FFFCCF809361
:103B2000C6003196F5CF4A9B03C0E8EFF2E009C02A
:103B3000EDEFF2E006C09091C00095FFFCCF8093BE
:103B4000C60081918111F7CF8091C00085FFFCCF25
:103B50008AE08093C6000C94A026D8018D918D0137
:103B60000E94772D882349F00E949D2D0E94A0B4C9
:103B7000F7016083718382839383F4E0EF0EF11C7D
:103B8000D012EBCF0E947D5B0C94A026F9E6EF2EBD
:103B9000FCE0FF2E04EF12E0A4E0DA2ED00ED801F4
:103BA0008D918D010E94772D882339F00E949D2DE3
:103BB000F7016083718382839383F4E0EF0EF11C3D
:103BC000D012EDCF0C94A02683E50E94772D882398
:103BD00051F00E949D2D6093850C7093860C80930C
:103BE000870C9093880C84E50E94772D882311F42C
:103BF0000C94A0260E949D2D60934D0C70934E0C4A
:103C000080934F0C9093500C0C94A02683E50E9457
:103C1000772D882351F00E949D2D6093650C709341
:103C2000660C8093670C9093680C84E50E94772D56
:103C3000882351F00E949D2D6093610C7093620C5B
:103C40008093630C9093640C82E40E94772D882308
:103C500061F00E949D2D0E94A0B460936317709341
:103C60006417809365179093661788E50E94772DF7
:103C7000882351F00E949D2D6093810C7093820CDB
:103C80008093830C9093840C8AE50E94772D88237F
:103C900051F00E949D2D60937D0C70937E0C80935B
:103CA0007F0C9093800C85E40E94772D882311F47B
:103CB0000C94A0260E949D2D6093790C70937A0C31
:103CC00080937B0C90937C0C0C94A0267CE2E72ED6
:103CD00075E0F72E04EF12E0E3E0DE2ED00ED801FF
:103CE0008D918D010E94772D882339F00E949D2DA2
:103CF000F7016083718382839383F4E0EF0EF11CFC
:103D0000D012EDCF0C94A02683E50E94772D882356
:103D100011F40C94A0260E949D2D0E949BB47093D8
:103D20001902609318020C94A02683E50E94772D57
:103D3000882311F40C94A0260E949D2D0E949BB410
:103D40007093200260931F02FBC783E50E94772DCA
:103D5000882331F00E949D2D0E949BB46B0103C00B
:103D60006EE6C62ED12C80E50E94772D882329F09F
:103D70000E949D2D0E949BB402C068EE73E04B012F
:103D8000770FAA08BB081C141D040CF088C2809190
:103D90003602853221F08F3F09F079C204C0E5ED8B
:103DA000F8E11491E7C085E280933602E5EDF8E191
:103DB00014911F3F09F46BC2123009F472C04CF524
:103DC000112309F451C0113009F0D4C010928000C1
:103DD00010928100809181008860809381008091A1
:103DE0008100816080938100EFE9FBE0E491F0E0E5
:103DF000EE0FFF1FE05AF44F859194919093430585
:103E000080934205E5EEFBE0E491E093410511E08B
:103E1000B3C0143009F48BC00CF466C0153009F03F
:103E2000A9C0109220011092210180912101886087
:103E30008093210180912101816080932101EFE92C
:103E4000FBE0E491F0E0EE0FFF1FE05AF44F8591A4
:103E5000949190933A0580933905E5EEFBE0E49167
:103E6000E093380515E088C014BC15BC84B58260A9
:103E700084BD85B5816085BDEFE9FBE0E491F0E0AC
:103E8000EE0FFF1FE05AF44F8591949190934605F1
:103E900080934505E5EEFBE0E491E093440510E0F6
:103EA0006BC01092B0001092B1008091B00082609F
:103EB0008093B0008091B10081608093B100EFE900
:103EC000FBE0E491F0E0EE0FFF1FE05AF44F859124
:103ED00094919093741780937317E5EEFBE0E4914F
:103EE000E093751712E048C0109290001092910074
:103EF0008091910088608093910080919100816011
:103F000080939100EFE9FBE0E491F0E0EE0FFF1FFA
:103F1000E05AF44F859194919093400580933F052A
:103F2000E5EEFBE0E491E0933E0513E025C010923E
:103F3000A0001092A1008091A10088608093A10050
:103F40008091A10081608093A100EFE9FBE0E49102
:103F5000F0E0EE0FFF1FE05AF44F8591949190939B
:103F60003D0580933C05E5EEFBE0E491E0933B05E5
:103F700014E002C017FD8BC161E085E20E94E351AD
:103F80000D2C000CEE08FF08812F8D7F09F0AEC0CC
:103F900060E072E18AE790E0A70196010E94EDB629
:103FA00029013A01BA01A901415051096109710978
:103FB0004F3F51056105710509F00CF448C060E4FC
:103FC00072E48FE090E0A70196010E94EDB6BA017D
:103FD000A90141505109610971091230F1F44F3FB3
:103FE00051056105710509F014F40C94B52C60E9D4
:103FF00070ED83E090E0A70196010E94EDB6BA0152
:10400000A90141505109610971094F3F51056105ED
:10401000710509F0BCF583E062C04F3F51056105B1
:104020007105B9F0B4F068E478EE81E090E0A701A2
:1040300096010E94EDB6BA01A901415051096109EA
:104040007109112311F40C94932C0C948A2C81E0A7
:1040500001C082E0111143C010C0D301C2012AE0A7
:10406000B595A795979587952A95D1F7AC01BD0190
:10407000415051096109710985E095B5987F892BF7
:1040800085BD8DC068E478EE81E090E0A7019601DF
:104090000E94EDB6BA01A9014150510961097109A7
:1040A0004F3F51056105710509F014F40C945A2C29
:1040B00064E274EF80E090E0A70196010E94EDB603
:1040C000BA01A90141505109610971094F3F5105D8
:1040D0006105710519F014F00C945D2C85E0909148
:1040E000B100987F892B8093B10049C060E072E1F4
:1040F0008AE790E0A70196010E94EDB6BA01A901F6
:1041000041505109610971094115510521E06207CA
:10411000710584F068E478EE81E090E0A7019601F3
:104120000E94EDB6BA01A901415051096109710916
:1041300083E001C081E0113039F490918100987FD3
:10414000892B809381003DC0133039F49091910008
:10415000987F892B809391005CC0143039F4909142
:10416000A100987F892B8093A10068C0153039F495
:1041700090912101987F892B8093210174C0123086
:10418000A9F12CF4112359F01130D9F080C014306A
:1041900009F454C0F4F1153009F465C078C047BD86
:1041A0008FEF9FEFDC018093570590935805A09304
:1041B0005905B0935A0580916E00826080936E001D
:1041C00066C050938900409388008FEF9FEFDC0119
:1041D0008093530590935405A0935505B0935605CD
:1041E00080916F00826080936F0051C04093B30054
:1041F0008FEF9FEFDC018093761790937717A09352
:104200007817B09379178091700082608093700066
:104210003EC050939900409398008FEF9FEFDC01D0
:1042200080934F0590935005A0935105B09352058C
:104230008091710082608093710029C05093A90021
:104240004093A8008FEF9FEFDC0180934B05909384
:104250004C05A0934D05B0934E058091720082608D
:104260008093720014C050932901409328018FEF6E
:104270009FEFDC018093470590934805A093490583
:10428000B0934A0580917300826080937300C501EA
:10429000B4010E94E65285E20E94458851C5C501DD
:1042A000B4010E94E6524CC580E50E94772D882318
:1042B00051F00E949D2D60934F02709350028093A5
:1042C00051029093520289E40E94772D882381F055
:1042D0000E949D2D2DEB37E346E05EE30E9433AC58
:1042E000609306027093070280930802909309027C
:1042F00084E40E94772D882381F00E949D2D2DEB70
:1043000037E346E05EE30E9433B460934B02709360
:104310004C0280934D0290934E0283E40E94772DCD
:10432000882351F00E949D2D60930002709301023A
:1043300080930202909303020E946D99ECE4F3E0F3
:104340008191882339F09091C00095FFFCCF809334
:10435000C600F6CFEFE4F3E08191882339F0909125
:10436000C00095FFFCCF8093C600F6CF60914F024E
:1043700070915002809151029091520242E00E944D
:104380004F37E3E5F3E08191882339F09091C00045
:1043900095FFFCCF8093C600F6CF2DEB37E346E0C8
:1043A0005EE360910602709107028091080290918D
:1043B00009020E9433B442E00E944F37E7E5F3E080
:1043C0008191882339F09091C00095FFFCCF8093B4
:1043D000C600F6CF2DEB37E346E05EE360914B027B
:1043E00070914C0280914D0290914E020E9433AC2C
:1043F00042E00E944F37EBE5F3E08191882339F0EA
:104400009091C00095FFFCCF8093C600F6CF6091DD
:10441000000270910102809102029091030242E039
:104420000E944F378091C00085FFFCCF8AE08093C7
:10443000C60086C485E40E94772D882341F00E943F
:104440009D2D0E949BB48B0177FD12C002C000E03D
:1044500010E027961FAE279728961FAE289736E1C3
:1044600029963FAF299743E42A964FAF2A970EC06B
:1044700027961FAE279728961FAE28975CE82996A7
:104480005FAF299782E42A968FAF2A9783E50E942F
:10449000772D882371F00E949D2D27966FAF279767
:1044A00028967FAF289729968FAF29972A969FAF96
:1044B0002A9783E40E94772D882349F00E949D2D3E
:1044C0000E949BB4A6967FAF6EAFA69706C0A5E0EC
:1044D000B0E0A696BFAFAEAFA6970E9417A22696F1
:1044E0006CAF7DAF8EAF9FAF2697023011051CF4E5
:1044F000EFE5F3E01AC0E2E7F3E08191882339F0B9
:104500009091C00095FFFCCF8093C600F6CF8091BC
:10451000C00085FFFCCF8AE08093C60011C4909153
:10452000C00095FFFCCF8093C60081918111F7CF29
:104530008091C00085FFFCCF8AE08093C6000E9476
:10454000DC958FE717FF60C08093CA1726964CACA6
:104550005DAC6EAC7FAC269764964CAE5DAE6EAE35
:104560007FAE6497AA964CAE5DAE6EAE7FAEAA9754
:104570002B961FAE2B9720E469962FAF69973CE1ED
:104580006A963FAF6A9746E46B964FAF6B97659616
:104590001FAE659766961FAE669767961FAE6797C4
:1045A00068961FAE6897FFE74F2E512C612C712C37
:1045B00022964CAE5DAE6EAE7FAE2297A2961CAE3A
:1045C0001DAE1EAE1FAEA29721E06C962FAF6C976A
:1045D00060961FAE1EAE60971BAE212C312C1DAE17
:1045E000A8014253584EA4965FAF4EAFA497C8019E
:1045F000880F991F880F991FDC01AA53B84E6E9639
:10460000BFAFAEAF6E9707C0F801E253F84E80839C
:104610009DCF0E94CB8C8091CD17882309F45BC17C
:104620000E94A19717FF0BC0B091C217BBAF20909B
:10463000C3173090C417E091C517EDAF0EC06E964A
:10464000AEADBFAD6E97BC91BBAF6E96EEADFFAD9C
:104650006E9721803280F381FDAF2BAD322D432D3B
:104660005DAD65966FAD659766967FAD669767960B
:104670008FAD679768969FAD68970E9482B51816B0
:1046800074F02BAD65962FAF659766962FAE669743
:1046900067963FAE67973DAD68963FAF68972BAD85
:1046A000322D432D5DAD2B966FAD2B9769967FAD67
:1046B00069976A968FAD6A976B969FAD6B970E94CC
:1046C000F4AF87FD0EC04BAD2B964FAF2B9769967D
:1046D0002FAE69976A963FAE6A975DAD6B965FAFF6
:1046E0006B976C968FAD6C97882309F475C02796ED
:1046F0002FAD279728963FAD289729964FAD29973C
:104700002A965FAD2A976BAD722D832D9DAD0E94C9
:1047100082B518160CF0DFC00E9417A2DC01CB0195
:1047200026962CAD3DAD4EAD5FAD2697821B930B0B
:10473000A40BB50B89389341A105B10508F4CBC092
:10474000D301C20122962CAD3DAD4EAD5FAD229797
:10475000821B930BA40BB50BB595A79597958795E1
:1047600017FF03C08093CA1705C0A496EEADFFAD36
:10477000A49780830E9417A264966CAF7DAF8EAF22
:104780009FAF64979B01AC0126968CAD9DADAEADFD
:10479000BFAD2697281B390B4A0B5B0BA2962CAF9B
:1047A0003DAF4EAF5FAFA29727969FAD2797659617
:1047B0009FAF65972896AFAD28976696AFAF66977F
:1047C0002996BFAD29976796BFAF67972A96EFAD39
:1047D0002A976896EFAF689727962FAD2797289668
:1047E0003FAD289729964FAD29972A965FAD2A9716
:1047F0006BAD722D832D9DAD0E94F4AF87FD02C07D
:104800000C940B2C0E9417A2DC01CB0164962CADFA
:104810003DAD4EAD5FAD6497821B930BA40BB50B02
:1048200089389341A105B10508F4F5C70E9417A284
:1048300026966CAF7DAF8EAF9FAF2697DC01CB0184
:1048400064962CAD3DAD4EAD5FAD6497821B930B6E
:10485000A40BB50B60964EAD5FAD609714161506B0
:104860000CF403C622968CAD9DADAEADBFAD2297C4
:10487000840D951DA61DB71DB595A7959795879590
:1048800017FD01C0C2C78093CA1760962EAD3FAD19
:1048900060972F5F3F4F60963FAF2EAF6097279690
:1048A0003FAD27972B963FAF2B9728964FAD289774
:1048B00069964FAF699729965FAD29976A965FAF62
:1048C0006A972A968FAD2A976B968FAF6B9791E078
:1048D0006C969FAF6C9720E030E040EA51E4279659
:1048E0006FAD279728967FAD289729968FAD29978A
:1048F0002A969FAD2A970E9457B39B01AC016BADDE
:10490000722D832D9DAD0E9482B51816ACF4EEE990
:10491000F2E08491882341F09091C00095FFFCCF94
:104920008093C6003196F5CF8091C00085FFFCCF03
:104930008AE08093C60004C20E9417A2DC01CB016A
:10494000AA962CAD3DAD4EAD5FADAA97821B930BE1
:10495000A40BB50B813D9740A105B10508F44EC0ED
:1049600017FF10C0E090CA17F12CE8E9F2E084913B
:104970008823D9F09091C00095FFFCCF8093C600AA
:104980003196F5CFA496AEADBFADA497EC90F12CC7
:10499000E2E9F2E08491882341F09091C00095FF14
:1049A000FCCF8093C6003196F5CF42E06BAD722DFF
:1049B000832D9DAD0E944F37EEE8F2E0849188236D
:1049C00041F09091C00095FFFCCF8093C6003196D6
:1049D000F5CFB701FF0C880B990B0E943D378091F2
:1049E000C00085FFFCCF8AE08093C6000E9417A21A
:1049F000AA966CAF7DAF8EAF9FAFAA970E9417A209
:104A00006B017C010E9417A264968CAC9DACAEAC8D
:104A1000BFAC649726962CAD3DAD4EAD5FAD2697ED
:104A2000820E931EA41EB51EC818D908EA08FB08FA
:104A3000DC01CB018C0D9D1DAE1DBF1D81389F4437
:104A4000A241B105A8F0E1E7F2E08491882341F0AA
:104A50009091C00095FFFCCF8093C6003196F5CFB2
:104A60008091C00085FFFCCF8AE08093C60068C1BA
:104A700060964EAD5FAD6097A6968EAD9FADA69742
:104A8000841795070CF0C5CDE5E2F2E08491882308
:104A900041F09091C00095FFFCCF8093C600319605
:104AA000F5CF8091C00085FFFCCF8AE08093C600DF
:104AB00047C10E94A69944C10E945E3341C10E9431
:104AC000EA2E3EC10E9441303BC183E50E94772D12
:104AD000882329F08091FE05882309F4A0C68CE480
:104AE0000E94772D882329F08091FE05882309F400
:104AF000A4C680E5FCD7882329F08091FE05882391
:104B000009F4B0C684E4F3D7882329F08091FE0528
:104B1000882309F4B1C682E4EAD7882329F080917A
:104B2000FE05882309F4B5C682E5E1D7882329F07C
:104B30008091FE05882309F4B3C686E4D8D788237C
:104B400009F4FEC0FAD76B017C016093871770935C
:104B500088178093891790938A1720E030E0A90185
:104B60000E9482B518160CF0EBC0C0921B02D092C6
:104B70001C02E0921D02F0921E02E2C01092FE059D
:104B80001092691780914E1790914F17A09150176E
:104B9000B09151178093FF0590930006A0930106F2
:104BA000B09302060E94AF95CBC084E5A0D78823BE
:104BB00009F482C0C2D70E94A0B460935217662342
:104BC000A9F1EBEEF5E08491882341F09091C000CB
:104BD00095FFFCCF8093C6003196F5CFECE9F3E06A
:104BE0008191882339F09091C00095FFFCCF80938C
:104BF000C600F6CF809152179091C00095FFFCCF70
:104C00008093C600EEE9F3E08191882339F090911A
:104C1000C00095FFFCCF8093C600F6CF8091C00006
:104C200085FFFCCF8AE08093C6008AC086E45FD708
:104C30008823D1F082D76B017C0160938717709332
:104C400088178093891790938A1720E030E0A90194
:104C50000E9482B5181644F4C0921B02D0921C0226
:104C6000E0921D02F0921E02EBEEF5E084918823A3
:104C700041F09091C00095FFFCCF8093C600319623
:104C8000F5CFEFEAF3E08191882339F09091C000ED
:104C900095FFFCCF8093C600F6CF6091700570E061
:104CA00080E090E00E943D378091C00085FFFCCFFE
:104CB0008AE08093C60044C0EBEEF5E0849188233F
:104CC00041F09091C00095FFFCCF8093C6003196D3
:104CD000F5CFE0E1F3E08491882341F09091C000AA
:104CE00095FFFCCF8093C6003196F5CF80919A074F
:104CF00090919B0720E6289FF001299FF00D112439
:104D0000E65EF94F8191882339F09091C00095FFBC
:104D1000FCCF8093C600F6CFEEE0F3E084918823C9
:104D200041F09091C00095FFFCCF8093C600319672
:104D3000F5CF8091C00085FFFCCF8AE08093C6004C
:104D40000E94879515C6F9D66093DF167093E0161A
:104D50008093E1169093E2160C94890DEED60E9492
:104D60009BB497FF07C090958095709561957F4F94
:104D70008F4F9F4F6093E7167093E8168093E91664
:104D80009093EA160C94940DD8D66093E316709322
:104D9000E4168093E5169093E6160C949F0DCDD6FD
:104DA00011E020E030E0A9010E94F4AF811101C0C0
:104DB00010E01093F6160C94AA0DBFD60E949BB477
:104DC000CB010E94F1870C94B50DB7D66093DF1626
:104DD0007093E0168093E1169093E2160C94D20D36
:104DE000ACD60E949BB497FF07C0909580957095B4
:104DF00061957F4F8F4F9F4F6093E7167093E81632
:104E00008093E9169093EA160C94DD0D96D6609384
:104E1000E3167093E4168093E5169093E6160C94CF
:104E2000E80D8BD611E020E030E0A9010E94F4AF3C
:104E3000811101C010E01093F6160C94F30D7DD68D
:104E40000E949BB4CB010E94F1870C94FE0D75D695
:104E50006093DF167093E0168093E1169093E2164C
:104E60000C941A0E6AD60E949BB497FF07C09095C7
:104E70008095709561957F4F8F4F9F4F6093E71698
:104E80007093E8168093E9169093EA160C94250E19
:104E900054D66093E3167093E4168093E5169093CE
:104EA000E6160C94300E49D611E020E030E0A9015E
:104EB0000E94F4AF811101C010E01093F6160C941B
:104EC0003B0E3BD60E949BB4CB010E94F1870C9411
:104ED000460E1092D5091092D6091092D709109259
:104EE000D8091092D9091092DA091092DB091092B0
:104EF000DC09ECE8F8E114910E94E73780E898E1DA
:104F0000A2D520E030E040EC5FE30E9433AC6B01BF
:104F10007C01612F110F770B880B990B0E94FAAF60
:104F20009B01AC01C701B6010E9433AC60935317DB
:104F300070935417809355179093561784E898E10F
:104F400082D5EDE8F8E1149120E030E040EC5FE339
:104F50000E9433AC6B017C01612F110F770B880B22
:104F6000990B0E94FAAF9B01AC01C701B6010E94E8
:104F700033AC6093571770935817809359179093D9
:104F80005A1780E090E8ADEEB5E480931B02909351
:104F90001C02A0931D02B0931E0230E7C32E35E021
:104FA000D32E15E5E12EFE2C0DEF12E42FE537E1AF
:104FB0004BE557E167E577E183E597E10E94C07B28
:104FC0000E94A69980E090E044D581E090E041D530
:104FD0000E94E7378091D5099091D609A091D70911
:104FE000B091D8098093531790935417A0935517F5
:104FF000B09356178091D9099091DA09A091DB09F5
:10500000B091DC098093571790935817A0935917C4
:10501000B0935A1720E030E040E752E460911B0261
:1050200070911C0280911D0290911E020E9433B467
:105030007B018C012FE537E14BE557E167E577E12F
:1050400083E597E10E94C07B10921B0210921C0224
:1050500010921D0210921E020E94A699109219062B
:1050600010921806109217068091531790915417BA
:10507000A0915517B09156178093D5099093D609F2
:10508000A093D709B093D8098091571790915817DA
:10509000A0915917B0915A178093D9099093DA09C2
:1050A000A093DB09B093DC0980915B1790915C17AA
:1050B000A0915D17B0915E178093DD099093DE0992
:1050C000A093DF09B093E0090C94EC1080E090E02D
:1050D0000E94B5770C94F71081E090E00E94B577BC
:1050E0000C94021182E090E00E94B5770C940D11AF
:1050F00024D56093DF167093E0168093E1169093A9
:10510000E2160C94D81319D50E949BB497FF07C0E0
:1051100090958095709561957F4F8F4F9F4F6093CD
:10512000E7167093E8168093E9169093EA160C94AC
:10513000E31303D56093E3167093E4168093E516AA
:105140009093E6160C94EE13F8D411E020E030E0D2
:10515000A9010E94F4AF811101C010E01093F6166E
:105160000C94F913EAD40E949BB4CB010E94F187FE
:105170000C940414D7D4AB01BC014093230C50937E
:10518000240C6093250C7093260C80E09CE00E9418
:10519000113FD6CDD2D4D4CD0E9417A2950184015F
:1051A000005F184D2F4F3F4F28013901461A570A0B
:1051B000680A790AC301B201A70196010E941BB3D4
:1051C000CA01B9014AE00E94C8368091C00085FF3B
:1051D000FCCF8AE08093C6000E9417A22B013C01FD
:1051E0000E94D2970E944F8E0E94CB8C80915217C2
:1051F0002FEF82169206A206B20609F0B7C0909170
:105200005B05992309F48BC090E08C01000F111FFE
:10521000000F111F0A53184E880F991FFC01E25905
:10522000FA4F60817181072E000C880B990B0E9448
:10523000FAAF20E030E040E85FE30E9456B39B0104
:10524000AC01D8016D917D918D919C910E9482B5A8
:1052500087FFBAC00E9417A2DC01CB01841995090F
:10526000A609B709893E9340A105B10508F4B8CF56
:10527000EFE6F4E08491882341F09091C00095FF1F
:10528000FCCF8093C6003196F5CFE091521724E011
:10529000E29FF0011124EA53F84E6081718182810E
:1052A000938141E00E944F37EBE6F4E0849188233C
:1052B00041F09091C00095FFFCCF8093C6003196DD
:1052C000F5CF6091521770E080E090E00E943D378A
:1052D000F1018491E7E6F4E0882349F09091C00061
:1052E00095FFFCCF8093C60031968491F5CFFFEFF8
:1052F0008F169F06AF06BF0609F04ECFEAE4F3E033
:1053000006C09091C00095FFFCCF8093C6008191AC
:105310008111F7CF8091C00085FFFCCF5ACF90E07C
:105320008C01000F111F000F111F0A53184E880F18
:10533000991FFC01E259FA4F60817181072E000C20
:10534000880B990B0E94FAAF20E030E040E85FE361
:105350000E9457B39B01AC01F80160817181828189
:1053600093810E94F4AF18167CF574CF90E08C0105
:10537000000F111F000F111F0A53184E880F991F9D
:10538000FC01E259FA4F60817181072E000C880BF5
:10539000990B0E94FAAF9B01AC01D8016D917D91F0
:1053A0008D919C910E9456B30E949BB497FF07C0B9
:1053B00090958095709561957F4F8F4F9F4F64308A
:1053C0007105810591056CF00E9417A24B015C01EB
:1053D0009FEF89169906A906B90609F43BCFB7FCD9
:1053E00008C00E9417A2681979096031774208F451
:1053F00031CF89E594E00E949A8C0E9417A26093B5
:1054000072057093730580937405909375050E94DF
:1054100017A26093A4177093A5178093A617909373
:10542000A7178ECC0E94A69988E561D3882319F02E
:1054300010922E0C5F9A89E55AD3882319F01092A6
:105440002F0C8A9A8AE553D3882341F09FB7F894AA
:10545000809108018160809308019FBF85E447D354
:10546000882309F46DCC129A6BCCA2968CAC9DACBF
:10547000AEACBFACA297880E991EAA1EBB1EA29608
:105480002CAD3DAD4EAD5FADA297281B390B4A0B3D
:105490005B0BCA01B90122962CAD3DAD4EAD5FAD9F
:1054A00022970E940CB3A50194010E94EDB6D3018E
:1054B000C201820F931FA41FB51F84319105A1055E
:1054C000B1050CF12C013D018C3E9105A105B10502
:1054D0002CF07BEE472E512C612C712C40E84416A9
:1054E000510461047104FCF08EEF90E0A0E0B0E0A4
:1054F00084199509A609B70922968CAF9DAFAEAF66
:10550000BFAF229716C064E1462E512C612C712C3E
:1055100024E130E040E050E022962CAF3DAF4EAFAA
:105520005FAF229706C022964CAE5DAE6EAE7FAEE8
:105530002297E6E0F3E08491882341F09091C00047
:1055400095FFFCCF8093C6003196F5CFC301B20121
:105550000E943D37E1E0F3E08491882341F090918F
:10556000C00095FFFCCF8093C6003196F5CF229600
:105570006CAD7DAD8EAD9FAD22970E943D37EAEFB9
:10558000F2E08491882341F09091C00095FFFCCF18
:105590008093C6003196F5CF42E02B966FAD2B97E6
:1055A00069967FAD69976A968FAD6A976B969FAD46
:1055B0006B970E944F37E3EFF2E08491882341F02C
:1055C0009091C00095FFFCCF8093C6003196F5CF37
:1055D00042E065966FAD659766967FAD6697679674
:1055E0008FAD679768969FAD68970E944F378091FF
:1055F000C00085FFFCCF8AE08093C60060962EAD88
:105600003FAD6097233031050CF42CC922966CAD68
:105610007DAD8EAD9FAD22970E94FAAF20E030E0C5
:1056200040E850E40E9433AC6B017C012B962FAD17
:105630002B9769963FAD69976A964FAD6A976B96BF
:105640005FAD6B9765966FAD659766967FAD669714
:1056500067968FAD679768969FAD68970E9456B31F
:1056600020ED3FE049E450E40E9433AC20E030E01C
:1056700040E05FE30E9433AC9B01AC01C701B6017F
:105680000E9433B46B017C01C501B4010E94FAAFE2
:1056900020E030E04AE754E40E9433B44B015C015F
:1056A000EDEEF2E08491882341F09091C00095FFE7
:1056B000FCCF8093C6003196F5CF42E0C701B6011A
:1056C0000E944F37E7EEF2E08491882341F09091F9
:1056D000C00095FFFCCF8093C6003196F5CF42E025
:1056E000C501B4010E944F378091C00085FFFCCFF7
:1056F0008AE08093C6002AE939E949E15FE3C701FE
:10570000B6010E9433AC6B017C019B01AC010E948D
:1057100057B3A50194010E9433B42E966CAF7DAFB0
:105720008EAF9FAF2E97A5019401C701B6010E94CD
:1057300033AC20E030E040E05EE30E9433AC4B014C
:105740005C01EAEDF2E08491882341F09091C00081
:1057500095FFFCCF8093C6003196F5CF8091C000B5
:1057600085FFFCCF8AE08093C600E4EDF2E08491EF
:10577000882341F09091C00095FFFCCF8093C60034
:105780003196F5CF42E0C701B6010E944F378091B4
:10579000C00085FFFCCF8AE08093C600EEECF2E00B
:1057A0008491882341F09091C00095FFFCCF8093B5
:1057B000C6003196F5CF42E02E966CAD7DAD8EAD34
:1057C0009FAD2E970E944F378091C00085FFFCCF80
:1057D0008AE08093C600E8ECF2E08491882341F0EF
:1057E0009091C00095FFFCCF8093C6003196F5CF15
:1057F00042E0C501B4010E944F378091C00085FF8F
:10580000FCCF8AE08093C6002DC8A496EEADFFAD14
:10581000A49780833AC86C961FAE6C975CC88DD1F4
:105820006093DF167093E0168093E1169093E21672
:105830000E94A0B460933F1752C97FD10E949BB4CD
:1058400097FF07C090958095709561957F4F8F4F1A
:105850009F4F6093E7167093E8168093E916909334
:10586000EA1647C96AD16093E3167093E4168093F1
:10587000E5169093E61646C960D111E020E030E0CD
:10588000A9010E94F4AF811101C010E01093F61637
:1058900042C953D10E949BB4CB010E94F18744C9F5
:1058A0004CD160934417709345178093461790939B
:1058B000471743C984E00C946F2062E17AE780E0E7
:1058C00090E0A70196010E94EDB6BA01A9014150EE
:1058D0005109610971094F3F510561057105B9F021
:1058E000B0F0D301C2010AE0B595A79597958795C9
:1058F0000A95D1F7AC01BD01415051096109710907
:10590000112311F40C943C2087E00C946F2086E066
:105910000C942A204F3F51056105710509F06CF682
:1059200084E00C942A204F3F510561057105D1F0A8
:10593000CCF062E17AE780E090E0A70196010E9456
:10594000EDB6BA01A90141505109610971094F3FF2
:1059500051056105710519F010F00C942D2084E0BB
:105960000C943D2083E00C943D2082E00C946F2049
:10597000C759DF4F0FB6F894DEBF0FBECDBFDF9122
:10598000CF911F910F91FF90EF90DF90CF90BF903C
:10599000AF909F908F907F906F905F904F903F90CF
:1059A0002F900895089580E090E00895FC01CB01C8
:1059B000BA012491222341F03091C00035FFFCCF81
:1059C0002093C6003196F5CF4AE00C94C836EF928A
:1059D000FF921F93CF93DF937C01C62FD72F142FF5
:1059E000160FF701808191810E94F6B28993F70129
:1059F000808191810196918380831C13F2CFDF9186
:105A0000CF911F91FF90EF900895EF92FF921F9317
:105A1000CF93DF937C01C62FD72F142F160F6991D8
:105A2000F701808191810E94FEB2F701808191810E
:105A30000196918380831C13F2CFDF91CF911F9148
:105A4000FF90EF900895FC01659175918591949177
:105A50000895EF92FF920F931F93CF93DF93EC0182
:105A6000CC0FDD1FCC0FDD1FCE01815B954FEBDF2F
:105A70009E012B52364F79018E01045D1A4FF801B9
:105A800020813181428153810E9457B3F7016083A5
:105A9000718382839383CE018D5B954FD4DF9E010A
:105AA0002057384E7901F80120813181428153819C
:105AB0000E9457B3F7016083718382839383CE0181
:105AC000895C954FC0DFC95CDD4FF80120813181D1
:105AD000428153810E9457B3688379838A839B8371
